:100000000C942A000C9447000C9447000C94470071
:100010000C9447000C9447000C9447000C94470044
:100020000C9447000C9447000C9447000C944F002C
:100030000C9447000C948B000C9447000C944700E0
:100040000C9447000C9447000C9447000C94470014
:100050000C94470011241FBECFE5D4E0DEBFCDBF16
:1000600011E0A0E6B0E0EEEDF9E002C005900D92DF
:10007000A636B107D9F711E0A6E6B1E001C01D929E
:10008000A638B107E1F70E9449000C94ED040C94E6
:1000900000000E94D90278940E945002FDCF1F9266
:1000A0000F920FB60F9211242F933F934F938F937C
:1000B0009F93EF93FF93F8944CB12091700130918E
:1000C000710180916E0190916F0128173907B0F48A
:1000D0004032A1F08091700190917101E0916C012A
:1000E000F0916D01E80FF91F4083809170019091AC
:1000F0007101019690937101809370017894FF9142
:10010000EF919F918F914F913F912F910F900FBE43
:100110000F901F9018951F920F920FB60F921124F7
:100120002F933F938F939F93EF93FF93F894809136
:100130006A0190916B01019690936B0180936A0123
:1001400020916A0130916B01809168019091690161
:100150002817390760F480916A0190916B01E09152
:100160006601F0916701E80FF91F80818CB97894DE
:10017000FF91EF919F918F913F912F910F900FBE23
:100180000F901F901895FC01808180BD818189B9F5
:1001900082818BB983818AB9848180BD0895FC01F5
:1001A0009093670180936601709369016093680181
:1001B00010926B0110926A015D9BFECF80818CB919
:1001C000089590936D0180936C0170936F0160931B
:1001D0006E011092710110927001089520916A01D0
:1001E00030916B01809168019091690140E028177E
:1001F000390708F041E0842F089520917001309173
:10020000710180916E0190916F0140E028173907CC
:1002100008F041E0842F08952F923F924F925F9211
:100220006F927F928F929F92AF92BF92CF92DF9206
:10023000EF92FF920F931F93DF93CF930F92CDB75F
:10024000DEB789838FEF87BB18BA84EF91E0861BF6
:100250009109880F991FAA2797FDA095BA2FBC0175
:10026000CD010E94B0031B012C012BEA3AEA4AE2BD
:1002700050E40E9464045B016C0120E030E040E83F
:100280005FE30E941603882314F461E054C0C601A2
:10029000B50120E030E04FE753E40E9460041816F7
:1002A0000CF045C0C201B10120E030E04AE754E45F
:1002B0000E941A033B014C0120E030E04AEF54E475
:1002C0000E9464047B018C0120E030E040E85FE3A1
:1002D0000E94160388231CF461E070E024C0C8016A
:1002E000B70120E03FEF4FE757E40E946004181683
:1002F000B4F4C401B30120E030E040E251E40E94D4
:1003000064040E94820388EC90E005C0FC013197F0
:10031000F1F76150704061157105C1F70EC0C80159
:10032000B7010E948203CB010197F1F706C0C60115
:10033000B5010E9482036A95F1F7898188BBC601E5
:10034000B50120E030E040E85FE30E941603882317
:1003500014F461E054C0C601B50120E030E04FE77D
:1003600053E40E94600418160CF045C0C201B101AC
:1003700020E030E04AE754E40E941A035B016C017C
:1003800020E030E04AEF54E40E9464047B018C01D9
:1003900020E030E040E85FE30E94160388231CF46D
:1003A00061E070E024C0C801B70120E03FEF4FE7F3
:1003B00057E40E9460041816B4F4C601B50120E0A9
:1003C00030E040E251E40E9464040E94820388EC21
:1003D00090E005C0FC013197F1F761507040611564
:1003E0007105C1F70EC0C801B7010E948203CB019D
:1003F0000197F1F706C0C601B5010E9482036A9514
:10040000F1F70F90CF91DF911F910F91FF90EF9037
:10041000DF90CF90BF90AF909F908F907F906F9024
:100420005F904F903F902F9008959FEF97BB18BA21
:1004300020E931E0F9013197F1F783E388BBF90155
:100440003197F1F786E688BBF9013197F1F789E931
:1004500088BBF9013197F1F78CEC88BBF901319732
:10046000F1F798BBC9010197F1F708958FEF87BBAA
:1004700020E040ED57E028BBCA010197F1F72F5F5C
:10048000FACF8FEF87BB90E02AE1E92FF0E0EB593C
:10049000FF4F808188BB822F8A95F1F79F5FF5CF50
:1004A0000F931F93DF93CF9300D00F92CDB7DEB79A
:1004B00080917201882309F45BC0813009F071C01A
:1004C00080E690E061E070E00E94CF000E94EE00C4
:1004D0008823E1F385E791E069E070E00E94E100A4
:1004E0000E94FD008823E1F380917501803449F575
:1004F00080917D018B3329F58091770189838091EB
:1005000078018A83809179018B838E010F5F1F4F61
:10051000C8010E94C7048093730180917A01898386
:1005200080917B018A8380917C018B83C8010E942A
:10053000C704809374018091760180538093650194
:1005400007C0E5E7F1E0119281E0EE37F807D9F74F
:1005500085E791E069E070E00E94E10082E690E0CA
:1005600062E070E00E94CF000E94EE008823E1F379
:10057000E0916501E43068F4F0E0EE0FFF1FE2580F
:10058000FE4F0190F081E02D809173016091740124
:1005900009950E94FD0010927201813011F4809340
:1005A00072010F900F900F90CF91DF911F910F91DB
:1005B0000895DF93CF9300D000D00F92CDB7DEB770
:1005C00083E38A8319821B8288ED8C8386E88D837E
:1005D000CE0101960E94C300E5E7F1E0119281E0AF
:1005E000EE37F807D9F78CE091E090937F01809384
:1005F0007E0185E192E0909381018093800186E302
:1006000092E0909383018093820181E492E0909341
:1006100085018093840181E0809372010F900F9097
:100620000F900F900F90CF91DF910895D4D008F4E0
:1006300081E008950CD00AC102D140F0F9D030F029
:1006400021F45F3F19F0EBC0511134C1EEC00FD15E
:1006500098F39923C9F35523B1F3951B550BBB2789
:10066000AA2762177307840738F09F5F5F4F220F36
:10067000331F441FAA1FA9F333D00E2E3AF0E0E82F
:1006800030D091505040E695001CCAF729D0FE2F7B
:1006900027D0660F771F881FBB1F2617370748070D
:1006A000AB07B0E809F0BB0B802DBF01FF279358C3
:1006B0005F4F2AF09E3F510568F0B1C0FBC05F3F1D
:1006C000ECF3983EDCF3869577956795B795F795AB
:1006D0009F5FC9F7880F911D9695879597F90895A3
:1006E000E1E0660F771F881FBB1F6217730784073F
:1006F000BA0720F0621B730B840BBA0BEE1F88F74E
:10070000E0950895BCD088F09F5790F0B92F9927B5
:10071000B751A0F0D1F0660F771F881F991F1AF00C
:10072000BA95C9F712C0B13081F0C3D0B1E00895D5
:10073000C0C0672F782F8827B85F39F0B93FCCF356
:10074000869577956795B395D9F73EF49095809502
:10075000709561957F4F8F4F9F4F0895E89409C022
:1007600097FB3EF490958095709561957F4F8F4FE4
:100770009F4F9923A9F0F92F96E9BB279395F695FA
:10078000879577956795B795F111F8CFFAF4BB0F78
:1007900011F460FF1BC06F5F7F4F8F4F9F4F16C0DC
:1007A000882311F096E911C0772321F09EE8872F66
:1007B000762F05C0662371F096E8862F70E060E022
:1007C0002AF09A95660F771F881FDAF7880F96959B
:1007D000879597F90895990F0008550FAA0BE0E83F
:1007E000FEEF16161706E807F907C0F012161306F3
:1007F000E407F50798F0621B730B840B950B39F433
:100800000A2661F0232B242B252B21F408950A2698
:1008100009F4A140A6958FEF811D811D089597F9D8
:100820009F6780E870E060E008959FEF80EC089596
:1008300000240A94161617061806090608950024BF
:100840000A9412161306140605060895092E039439
:10085000000C11F4882352F0BB0F40F4BF2B11F4AD
:1008600060FF04C06F5F7F4F8F4F9F4F089557FD0C
:100870009058440F551F59F05F3F71F04795880F0E
:1008800097FB991F61F09F3F79F0879508951216A5
:1008900013061406551FF2CF4695F1DF08C0161651
:1008A00017061806991FF1CF869571056105089402
:1008B0000895E894BB2766277727CB0197F9089519
:1008C0008ADF08F48FEF08950BD0C0CFB1DF28F096
:1008D000B6DF18F0952309F0A2CFA7CF1124EACFF5
:1008E000C6DFA0F3959FD1F3950F50E0551F629F8F
:1008F000F001729FBB27F00DB11D639FAA27F00D79
:10090000B11DAA1F649F6627B00DA11D661F829F9F
:100910002227B00DA11D621F739FB00DA11D621F84
:10092000839FA00D611D221F749F3327A00D611DA1
:10093000231F849F600D211D822F762F6A2F112483
:100940009F5750408AF0E1F088234AF0EE0FFF1FD6
:10095000BB1F661F771F881F91505040A9F79E3F0D
:10096000510570F05CCFA6CF5F3FECF3983EDCF30F
:10097000869577956795B795F795E7959F5FC1F74A
:10098000FE2B880F911D9695879597F90895FC0188
:1009900088279927E89421912032E9F3293010F033
:1009A0002E30C8F32B3241F02D3239F4689404C054
:1009B0000E94E504820F911D219120532A30C0F33B
:1009C0001EF4909581959F4F08957AE0979F902D02
:0E09D000879F802D910D11240895F894FFCF7C
:1009DE003E000D3E007F8285888B8F9295989B9E60
:1009EE00A1A4A7AAADB0B2B5B8BBBEC0C3C6C8CB92
:1009FE00CDD0D2D4D7D9DBDDDFE1E3E5E7E9EAEC10
:100A0E00EEEFF0F2F3F4F5F7F8F9F9FAFBFCFCFD72
:100A1E00FDFDFEFEFEFEFEFEFEFDFDFDFCFCFBFAF8
:100A2E00F9F9F8F7F5F4F3F2F0EFEEECEAE9E7E5B1
:100A3E00E3E1DFDDDBD9D7D4D2D0CDCBC8C6C3C07E
:100A4E00BEBBB8B5B2B0ADAAA7A4A19E9B98959215
:100A5E008F8B8885827F7C7976736F6C6966636015
:100A6E005D5A5754514E4C494643403E3B383633FF
:100A7E00312E2C2A272523211F1D1B191715141261
:100A8E00100F0E0C0B0A09070605050403020201DE
:100A9E000101000000000000000101010202030438
:100AAE0005050607090A0B0C0E0F1012141517195F
:100ABE001B1D1F212325272A2C2E313336383B3E72
:100ACE00404346494C4E5154575A5D606366696CBB
:060ADE006F7376797C04C1
:00000001FF
