S00D00005461736B352E737265634F
S11300000C942A000C9447000C9447000C9447006D
S11300100C9447000C9447000C9447000C94470040
S11300200C9447000C9447000C9447000C94470030
S11300300C9447000C94D1010C9447000C940F02CB
S11300400C9447000C9447000C9447000C94470010
S11300500C94470011241FBECFE5D8E0DEBFCDBF0E
S113006010E0A0E6B0E0ECE9F8E002C005900D92E3
S1130070A236B107D9F724E0A2E6B0E001C01D9290
S1130080A936B207E1F70E9449000C944C040C9481
S113009000000E94CA010E94CE01FDCFF89420E026
S11300A030E040E85FE360916A0070916B008091FA
S11300B06C0090916D000E94810260936A007093BD
S11300C06B0080936C0090936D001DBC1CBC88B7C2
S11300D0806188BF789420E030E040E751E460918B
S11300E06A0070916B0080916C0090916D000E9489
S11300F0AA030E94ED020895369A349BFECF65B19F
S113010070E080E090E00E941C0320E030E040EAD0
S113011050E40E94AA0320E030E040E85BE30E9440
S1130120AA0320E030E040E251E40E94AA030E94C6
S1130130ED02862F0895CF93DF9300D000D01F9255
S1130140CDB7DEB783E38A8319821B8288ED8C8363
S113015086E88D83CE0101960E944702F8941FBC65
S11301601EBC84E08EBD84EF91E09BBD8ABD1DBCA6
S11301701CBC789480E687B986B1826C86B9EEE6B9
S1130180F0E085E790E01192E817F907E1F71092A3
S113019061000F900F900F900F900F90DF91CF910F
S11301A008952F923F924F925F926F927F928F9217
S11301B09F92AF92BF92CF92DF92EF92FF920F93F2
S11301C01F93CF93DF93CDB7DEB727970FB6F8947D
S11301D0DEBF0FBECDBF80916100813079F120F088
S11301E0823009F4A6C0BDC008B604FEFDCF10914C
S11301F069000E947C00E12FF0E0EB56FC4F808305
S1130200109169000E944E00E12FF0E0EE0FFF1FF5
S1130210EE0FFF1FEB58FF4F60837183828393833C
S1130220809169008F5F809369009091690081E0FB
S1130230983C08F480E08093610093C00F2EF5E9A8
S1130240CF2EF3E0DF2EF02D0F2EF5E7EF2EF0E0AA
S1130250FF2EF02D0F2EF5E98F2EF3E09F2EF02DBB
S113026002E610E00F2EFCE25F2EF02D689433249A
S113027032F8412C212C0F2EF5E6AF2EF0E0BF2EE4
S1130280F02D612C712CF8015082F60181916F01DF
S11302904AE0BE016B5F7F4F90E00E9417048D819E
S11302A0F80181838E8182834AE0BE016F5F7F4FB4
S11302B0F701808191810E941704F7018191919146
S11302C0A191B1917F0185369105A105B105D8F5BC
S11302D084369105A105B105C8F10B97A105B105B7
S11302E0C0F521E030E037C04D914193019682176B
S11302F09307D4F38AE0F801878368E070E0C801CB
S11303000E9453020E9472028823E1F3FFE728E36C
S113031081E0F15020408040E1F700C00000E81483
S1130320F90409F0B0CF61E070E080E690E00E944B
S11303306502109261008EE480936000F8941DBC05
S11303401CBC78940EC0232D342D05C023E0322D1F
S113035002C022E030E0DE011196F501862D972DD2
S1130360C3CF27960FB6F894DEBF0FBECDBFDF9183
S1130370CF911F910F91FF90EF90DF90CF90BF909E
S1130380AF909F908F907F906F905F904F903F9031
S11303902F9008950E949B00789408950E94D100A4
S11303A008951F920F920FB60F9211242F933F932B
S11303B04F935F938F939F93EF93FF93F8948CB134
S11303C040915D0450915E0420915F04309160047B
S11303D042175307B0F48032A1F020915D043091AC
S11303E05E04E0916104F0916204E20FF31F8083E4
S11303F080915D0490915E04019690935E048093D5
S11304005D047894FF91EF919F918F915F914F914B
S11304103F912F910F900FBE0F901F9018951F9230
S11304200F920FB60F9211242F933F938F939F93A4
S1130430EF93FF93F8948091630490916404019680
S11304409093640480936304209163043091640462
S113045080916504909166042817390760F48091AF
S1130460630490916404E0916704F0916804E80FD8
S1130470F91F80818CB97894FF91EF919F918F91AE
S11304803F912F910F900FBE0F901F901895FC0174
S1130490808180BD818189B982818BB983818AB948
S11304A0848180BD08959093680480936704709359
S11304B066046093650410926404109263045D9B67
S11304C0FECFFC0180818CB90895909362048093DF
S11304D061047093600460935F0410925E04109250
S11304E05D0408954091630450916404209165046F
S11304F03091660481E04217530708F480E00895C0
S11305005058BB27AA270E9498020C9470030E949B
S1130510620338F00E94690320F039F49F3F19F414
S113052026F40C945F030EF4E095E7FB0C94590356
S1130530E92F0E94810358F3BA17620773078407EF
S1130540950720F079F4A6F50C94A3030EF4E09536
S11305500B2EBA2FA02D0B01B90190010C01CA0179
S1130560A0011124FF27591B99F0593F50F4503E24
S113057068F11A16F040A22F232F342F4427585F16
S1130580F3CF469537952795A795F0405395C9F72E
S11305907EF41F16BA0B620B730B840BBAF09150E6
S11305A0A1F0FF0FBB1F661F771F881FC2F70EC085
S11305B0BA0F621F731F841F48F487957795679558
S11305C0B795F7959E3F08F0B0CF9395880F08F044
S11305D09927EE0F9795879508950E94890388F0CF
S11305E09F5798F0B92F9927B751B0F0E1F0660FF3
S11305F0771F881F991F1AF0BA95C9F714C0B13034
S113060091F00E94A303B1E008950C94A303672F13
S1130610782F8827B85F39F0B93FCCF38695779562
S11306206795B395D9F73EF490958095709561954B
S11306307F4F8F4F9F4F0895E89409C097FB3EF476
S113064090958095709561957F4F8F4F9F4F99231B
S1130650A9F0F92F96E9BB279395F6958795779599
S11306606795B795F111F8CFFAF4BB0F11F460FF59
S11306701BC06F5F7F4F8F4F9F4F16C0882311F0B1
S113068096E911C0772321F09EE8872F762F05C0C5
S1130690662371F096E8862F70E060E02AF09A9560
S11306A0660F771F881FDAF7880F9695879597F955
S11306B0089597F99F6780E870E060E008959FEFE0
S11306C080EC089500240A941616170618060906E5
S11306D0089500240A9412161306140605060895B4
S11306E0092E0394000C11F4882352F0BB0F40F43C
S11306F0BF2B11F460FF04C06F5F7F4F8F4F9F4F7C
S1130700089557FD9058440F551F59F05F3F71F0FD
S11307104795880F97FB991F61F09F3F79F0879564
S11307200895121613061406551FF2CF4695F1DFED
S113073008C0161617061806991FF1CF869571057D
S1130740610508940895E894BB2766277727CB01B1
S113075097F908950E94BD030C9470030E946203EC
S113076038F00E94690320F0952311F00C9459038A
S11307700C945F0311240C94A4030E94810370F36E
S1130780959FC1F3950F50E0551F629FF001729F32
S1130790BB27F00DB11D639FAA27F00DB11DAA1F41
S11307A0649F6627B00DA11D661F829F2227B00D8E
S11307B0A11D621F739FB00DA11D621F839FA00D19
S11307C0611D221F749F3327A00D611D231F849F69
S11307D0600D211D822F762F6A2F11249F575040C0
S11307E09AF0F1F088234AF0EE0FFF1FBB1F661F3B
S11307F0771F881F91505040A9F79E3F510580F004
S11308000C9459030C94A4035F3FE4F3983ED4F38F
S1130810869577956795B795F795E7959F5FC1F7A7
S1130820FE2B880F911D9695879597F90895BB2700
S11308304A3031F4992322F4BDE2909581959F4F7B
S11308400C942304BB27FB015527AA27880F991F63
S1130850AA1FA41710F0A41B83955051B9F7A05DEB
S1130860AA3308F0A95DA193009779F7B111B19368
S11308701192CB010C943C04DC01FC01672F7191B3
S11308807723E1F7329704C07C916D937083629172
S10F0890AE17BF07C8F30895F894FFCF1B
S105089C4E0107
S9030000FC
