:100000000C942A000C9434000C9434000C943400AA
:100010000C9434000C9434000C9434000C94340090
:100020000C9434000C9434000C9434000C94340080
:100030000C9434000C9434000C9434000C94340070
:100040000C9434000C9434000C9434000C94340060
:100050000C94340011241FBECFE5D4E0DEBFCDBF29
:100060000E9436000C94DB010C940000CF93DF93C8
:1000700000D000D0CDB7DEB788EF8ABB8FEF87BB4B
:1000800012BA95E793BF19BE8CBF19821A821B82E0
:100090001C821FEFC89B0EC069817A818B819C8175
:1000A0002DEC3CEC4CEC5DE30E94810069837A838B
:1000B0008B839C83C99B0EC069817A818B819C81D3
:1000C0002DEC3CEC4CEC5DE30E94820069837A836A
:1000D0008B839C8329813A814B815C8160E070E055
:1000E00080E89FE30E94810020E030E04FE753E486
:1000F0000E946E010E94EE006CBF14BB8CB785BBE2
:10010000C9CF5058BB27AA270E9499000C943401EC
:100110000E94260138F00E942D0120F039F49F3F03
:1001200019F426F40C9423010EF4E095E7FB0C94EB
:100130001D01E92F0E94450158F3BA1762077307A2
:100140008407950720F079F4A6F50C9467010EF466
:10015000E0950B2EBA2FA02D0B01B90190010C01D7
:10016000CA01A0011124FF27591B99F0593F50F4EF
:10017000503E68F11A16F040A22F232F342F442747
:10018000585FF3CF469537952795A795F04053953F
:10019000C9F77EF41F16BA0B620B730B840BBAF00F
:1001A0009150A1F0FF0FBB1F661F771F881FC2F77A
:1001B0000EC0BA0F621F731F841F48F4879577958E
:1001C0006795B795F7959E3F08F0B0CF9395880F48
:1001D00008F09927EE0F9795879508950E944D0195
:1001E00088F09F5798F0B92F9927B751B0F0E1F0F8
:1001F000660F771F881F991F1AF0BA95C9F714C0A8
:10020000B13091F00E946701B1E008950C9467014C
:10021000672F782F8827B85F39F0B93FCCF38695E0
:1002200077956795B395D9F73EF49095809570953D
:1002300061957F4F8F4F9F4F089597F99F6780E893
:1002400070E060E008959FEF80EC089500240A9428
:100250001616170618060906089500240A941216A1
:100260001306140605060895092E0394000C11F4D4
:10027000882352F0BB0F40F4BF2B11F460FF04C081
:100280006F5F7F4F8F4F9F4F089557FD9058440FDA
:10029000551F59F05F3F71F04795880F97FB991FE5
:1002A00061F09F3F79F087950895121613061406A2
:1002B000551FF2CF4695F1DF08C01616170618062F
:1002C000991FF1CF86957105610508940895E8940A
:1002D000BB2766277727CB0197F908950E948101F4
:1002E0000C9434010E94260138F00E942D0120F068
:1002F000952311F00C941D010C94230111240C94EE
:1003000068010E94450170F3959FC1F3950F50E07D
:10031000551F629FF001729FBB27F00DB11D639FB7
:10032000AA27F00DB11DAA1F649F6627B00DA11D5D
:10033000661F829F2227B00DA11D621F739FB00D03
:10034000A11D621F839FA00D611D221F749F332773
:10035000A00D611D231F849F600D211D822F762F0C
:100360006A2F11249F5750409AF0F1F088234AF0E9
:10037000EE0FFF1FBB1F661F771F881F9150504055
:10038000A9F79E3F510580F00C941D010C94680163
:100390005F3FE4F3983ED4F3869577956795B795DC
:1003A000F795E7959F5FC1F7FE2B880F911D9695F6
:0A03B000879597F90895F894FFCFA0
:00000001FF
