:100000000C942A000C943C000C943C000C943C0092
:100010000C9460000C943C000C943C000C943C004C
:100020000C943C000C943C000C943C000C9451004B
:100030000C943C000C943C000C943C000C943C0050
:100040000C943C000C943C000C943C000C943C0040
:100050000C943C0011241FBECFE5D4E0DEBFCDBF21
:1000600020E0A0E6B0E001C01D92A636B207E1F79D
:100070000E9496000C94C6000C9400003F983E9A93
:100080003D9A3C983B983A9839983898379A329AE2
:10009000319A309A0895369A349BFECF349A85B1BE
:1000A00008951F920F920FB60F9211248F938CB167
:1000B000809364008F910F900FBE0F901F90189542
:1000C0001F920F920FB60F9211248F939F938091DE
:1000D00060008F5F8093600090916500891303C07A
:1000E0001CBE109260009F918F910F900FBE0F90D9
:1000F0001F90189522E43FE0482F429FC001439F84
:10010000900D11249093650008956CBF0E947A00B1
:100110000E94B80008950E944B008CBF0895D098AB
:10012000BB9A1CBE8FB780688FBF089580E895E2A8
:100130000E94BF000E94B2000E943E000E948F00F9
:1001400080916200813039F4609161008091630098
:100150000E948500F5CF811103C00E948B00F0CF73
:100160001CBEEECF85E783BF19BE8FEF8CBF08950D
:1001700014BC89B7806489BF87E885BD089590BDA8
:1001800089B988E18AB98EE880BD0895F894FFCFD7
:00000001FF
