:100000000C942A000C9447000C9447000C94470071
:100010000C9447000C9447000C9447000C94470044
:100020000C9447000C9447000C9447000C94470034
:100030000C9447000C94D0010C9447000C940E02D1
:100040000C9447000C9447000C9447000C94470014
:100050000C94470011241FBECFE5D8E0DEBFCDBF12
:1000600010E0A0E6B0E0E2E6F7E002C005900D92F5
:10007000A236B107D9F724E0A2E6B0E001C01D9294
:10008000AF36B207E1F70E94C4010C94AF030C94A1
:100090000000F89420E030E040E85FE360916B00FE
:1000A00070916C0080916D0090916E000E948E02A4
:1000B00060936B0070936C0080936D0090936E0062
:1000C0001DBC1CBC88B7806188BF789460916B00B0
:1000D00070916C0080916D0090916E000E94FA0208
:1000E0000895CF93DF9300D000D01F92CDB7DEB735
:1000F00083E38A8319821B8288ED8C8386E88D8353
:10010000CE0101960E944602F8941FBC1EBC84E0FA
:100110008EBD84EF91E09BBD8ABD1DBC1CBC789454
:10012000EFE6F0E087E790E01192E817F907E1F7D2
:10013000109261000F900F900F900F900F90DF9131
:10014000CF9108952F923F924F925F926F927F923C
:100150008F929F92AF92BF92CF92DF92EF92FF92D7
:100160000F931F93CF93DF93CDB7DEB727970FB6CB
:10017000F894DEBF0FBECDBF809161008130F9F0F1
:1001800038F0823009F445C0833009F4C3C0E3C0BD
:100190001ABA4091610450916204509360044093F4
:1001A0005F0489B390E0909362048093610421E03E
:1001B0004817590709F420E020936100CCC01ABA0F
:1001C00008B604FEFDCFE0916A0089B3F0E0E9567D
:1001D000FC4F808310916A000E944900E12FF0E0FB
:1001E000EE0FFF1FEE0FFF1FE958FF4F6083718373
:1001F0008283938380916A008F5F80936A008091ED
:100200006A00883C10F480E001C082E080936100C5
:10021000A2C00F2EF7E9CF2EF3E0DF2EF02D0F2E28
:10022000F7E7EF2EF0E0FF2EF02D0F2EF7E98F2EDF
:10023000F3E09F2EF02D02E610E00F2EFCE24F2E91
:10024000F02D0F2EF3E02F2EF02D312C0F2EF6E691
:10025000AF2EF0E0BF2EF02D512C612C0F2EFBE3C2
:100260007F2EF02D1D821E821F8219821A821B8210
:100270001C82F60181916F014AE0BE016B5F7F4FE6
:1002800090E00E947A038D81F80180838E818183C2
:100290008F81828343824AE0BE016F5F7F4FF70107
:1002A000808191810E947A03F70181919191A191BE
:1002B000B1917F0184369105A105B105A0F50A979A
:1002C000A105B10598F521E030E032C04D91419390
:1002D000019682179307D4F3F801778268E070E003
:1002E000C8010E9452020E9471028823E1F3FFE3D9
:1002F0002DE083E0F15020408040E1F700C0000095
:10030000E814F90409F0AECF61E070E080E690E017
:100310000E9464020E947F028130D1F480916000CB
:100320008734B1F40BC0222D332D02C022E030E01F
:10033000DE011196F501852D962DC8CF1092610032
:100340008EE480936000F8941DBC1CBC789403C0BC
:1003500083E08093610027960FB6F894DEBF0FBE4E
:10036000CDBFDF91CF911F910F91FF90EF90DF9064
:10037000CF90BF90AF909F908F907F906F905F9045
:100380004F903F902F9008950E94C9010E94CD0187
:10039000FDCF0E947100789408950E94A2000895F4
:1003A0001F920F920FB60F9211242F933F934F93EA
:1003B0005F938F939F93EF93FF93F8948CB1409149
:1003C00063045091640420916504309166044217DF
:1003D0005307B0F48032A1F020916304309164049B
:1003E000E0916704F0916804E20FF31F808380912D
:1003F0006304909164040196909364048093630471
:100400007894FF91EF919F918F915F914F913F91E0
:100410002F910F900FBE0F901F9018951F920F9263
:100420000FB60F9211242F933F938F939F93EF93C7
:10043000FF93F8948091690490916A0401969093D7
:100440006A04809369042091690430916A04809160
:100450006B0490916C042817390760F4809169044B
:1004600090916A04E0916D04F0916E04E80FF91F19
:1004700080818CB97894FF91EF919F918F913F91FA
:100480002F910F900FBE0F901F901895FC01808147
:1004900080BD818189B982818BB983818AB9848148
:1004A00080BD089590936E0480936D0470936C04E6
:1004B00060936B0410926A04109269045D9BFECFF6
:1004C000FC0180818CB9089590936804809367043F
:1004D0007093660460936504109264041092630440
:1004E00008954091690450916A0420916B04309101
:1004F0006C0481E04217530708F480E008954091AE
:10050000630450916404209165043091660481E095
:100510004217530708F480E008955058BB27AA27D4
:100520000E94A5020C9440030E94320338F00E94FE
:10053000390320F039F49F3F19F426F40C942F036B
:100540000EF4E095E7FB0C942903E92F0E94510378
:1005500058F3BA17620773078407950720F079F4F8
:10056000A6F50C9473030EF4E0950B2EBA2FA02D74
:100570000B01B90190010C01CA01A0011124FF2750
:10058000591B99F0593F50F4503E68F11A16F0404B
:10059000A22F232F342F4427585FF3CF469537954A
:1005A0002795A795F0405395C9F77EF41F16BA0B0F
:1005B000620B730B840BBAF09150A1F0FF0FBB1FBD
:1005C000661F771F881FC2F70EC0BA0F621F731F06
:1005D000841F48F4879577956795B795F7959E3F63
:1005E00008F0B0CF9395880F08F09927EE0F9795F4
:1005F000879508950E94590388F09F5798F0B92F66
:100600009927B751B0F0E1F0660F771F881F991F47
:100610001AF0BA95C9F714C0B13091F00E94730373
:10062000B1E008950C947303672F782F8827B85F83
:1006300039F0B93FCCF3869577956795B395D9F79F
:100640003EF490958095709561957F4F8F4F9F4FA9
:10065000089597F99F6780E870E060E008959FEF44
:1006600080EC089500240A94161617061806090649
:10067000089500240A941216130614060506089518
:10068000092E0394000C11F4882352F0BB0F40F4A0
:10069000BF2B11F460FF04C06F5F7F4F8F4F9F4FE0
:1006A000089557FD9058440F551F59F05F3F71F062
:1006B0004795880F97FB991F61F09F3F79F08795C9
:1006C0000895121613061406551FF2CF4695F1DF52
:1006D00008C0161617061806991FF1CF86957105E2
:1006E000610508940895E894BB2766277727CB0116
:1006F00097F90895BB274A3031F4992322F4BDE2DB
:10070000909581959F4F0C948603BB27FB0155273D
:10071000AA27880F991FAA1FA41710F0A41B83955E
:100720005051B9F7A05DAA3308F0A95DA1930097D5
:1007300079F7B111B1931192CB010C949F03DC01B5
:10074000FC01672F71917723E1F7329704C07C9108
:100750006D9370836291AE17BF07C8F30895F89444
:02076000FFCFC9
:020762004E0146
:00000001FF
