:100000000C942A000C9447000C9447000C94470071
:100010000C9447000C9447000C9447000C94470044
:100020000C9447000C9447000C9447000C94470034
:100030000C9447000C9449000C9447000C949100D8
:100040000C9447000C9447000C9447000C94470014
:100050000C94470011241FBECFE5D8E0DEBFCDBF12
:1000600010E0A0E6B0E0ECEAFCE002C005900D92E2
:10007000A636B107D9F710E0A6E6B0E001C01D92A0
:10008000AA37B107E1F70E947F050C9454060C943F
:1000900000001F920F920FB60F9211242F933F93DF
:1000A0008F939F93EF93FF93DF93CF930F92CDB7EF
:1000B000DEB7F894ECE2F0E0808189832091700053
:1000C0003091710080916E0090916F002817390770
:1000D000C8F489818032B1F020916C0030916D00BC
:1000E0008091700090917100F901E80FF91F8981EA
:1000F00080838091700090917100019690937100BF
:100100008093700078940F90CF91DF91FF91EF91E1
:100110009F918F913F912F910F900FBE0F901F9045
:1001200018951F920F920FB60F9211242F933F93A1
:100130008F939F93AF93BF93EF93FF93DF93CF93EF
:10014000CDB7DEB7F89480916A0090916B0001966C
:1001500090936B0080936A0020916A0030916B004D
:1001600080916800909169002817390778F4ACE213
:10017000B0E0209166003091670080916A00909114
:100180006B00F901E80FF91F80818C937894CF916F
:10019000DF91FF91EF91BF91AF919F918F913F912F
:1001A0002F910F900FBE0F901F901895DF93CF9354
:1001B00000D0CDB7DEB79A838983A0E4B0E0E981AF
:1001C000FA8180818C93A9E2B0E0E981FA81818192
:1001D0008C93ABE2B0E0E981FA8182818C93AAE250
:1001E000B0E0E981FA8183818C93A0E4B0E0E981F9
:1001F000FA8184818C930F900F90CF91DF910895B5
:10020000DF93CF9300D000D0CDB7DEB79A83898338
:100210007C836B8389819A819093670080936600C9
:100220008B819C81909369008093680010926B0091
:1002300010926A00EBE2F0E08081882F90E08072FB
:1002400090700097B9F3ECE2F0E0A0916600B091F5
:1002500067008C9180830F900F900F900F90CF913B
:10026000DF910895DF93CF9300D000D0CDB7DEB7F4
:100270009A8389837C836B8389819A8190936D00B3
:1002800080936C008B819C8190936F0080936E00B3
:1002900010927100109270000F900F900F900F90BD
:1002A000CF91DF910895DF93CF930F92CDB7DEB753
:1002B00020916A0030916B008091680090916900F4
:1002C00019822817390710F081E0898389810F90FE
:1002D000CF91DF910895DF93CF930F92CDB7DEB723
:1002E000209170003091710080916E0090916F00AC
:1002F00019822817390710F081E0898389810F90CE
:10030000CF91DF910895DF93CF93CDB7DEB7A9E505
:10031000B0E0E9E5F0E080818E7F8C93A9E5B0E064
:10032000E9E5F0E080818D7F8C93CF91DF91089596
:10033000DF93CF93CDB7DEB7E2E5F0E01082A3E51F
:10034000B0E0E3E5F0E080818F778C93A3E5B0E047
:10035000E3E5F0E080818F7B8C93A3E5B0E0E3E5FB
:10036000F0E08081877F8C93A3E5B0E0E3E5F0E0E7
:1003700080818F7E8C93A3E5B0E0E3E5F0E080819F
:100380008F7D8C93A3E5B0E0E3E5F0E080818460AD
:100390008C93A3E5B0E0E3E5F0E080818D7F8C9362
:1003A000A3E5B0E0E3E5F0E080818E7F8C93A9E5E2
:1003B000B0E0E9E5F0E0808181608C93A9E5B0E0F0
:1003C000E9E5F0E080818D7F8C93A8E5B0E0E8E579
:1003D000F0E0808181608C93A8E5B0E0E8E5F0E092
:1003E00080818D7F8C93CF91DF910895DF93CF93A0
:1003F000CDB7DEB7ECE5F0E088EC8083E2E5F0E035
:100400001082A3E5B0E0E3E5F0E080818F778C9384
:10041000A3E5B0E0E3E5F0E080818F7B8C93A3E57A
:10042000B0E0E3E5F0E0808188608C93A3E5B0E084
:10043000E3E5F0E080818F7E8C93A3E5B0E0E3E517
:10044000F0E080818F7D8C93A3E5B0E0E3E5F0E000
:10045000808184608C93A3E5B0E0E3E5F0E08081E7
:100460008D7F8C93A3E5B0E0E3E5F0E080818E7FA3
:100470008C93A9E5B0E0E9E5F0E080818E7F8C9374
:10048000A9E5B0E0E9E5F0E0808182608C93A8E521
:10049000B0E0E8E5F0E080818E7F8C93A8E5B0E0E5
:1004A000E8E5F0E0808182608C93CF91DF91089540
:1004B000DF93CF93CDB7DEB7E3E5F0E085E7808348
:1004C000E9E5F0E01082ECE5F0E08FEF8083CF917A
:1004D000DF910895DF93CF93CDB7DEB7ABE5B0E002
:1004E000EBE5F0E0808180648C93A5E5B0E0E5E584
:1004F000F0E0808181608C93A5E5B0E0E5E5F0E077
:10050000808182608C93AFE5B0E0EFE5F0E0808120
:1005100080688C93CF91DF910895DF93CF93CDB70F
:10052000DEB7AFE5B0E0EFE5F0E0808180688C9366
:10053000CF91DF910895DF93CF93CDB7DEB7AFE5CD
:10054000B0E0EFE5F0E080818F778C93CF91DF9181
:100550000895DF93CF9300D000D0CDB7DEB78B8363
:100560006C838B818695869586958A838B8187702F
:1005700089838A81882381F58C818823A9F4AAE361
:10058000B0E0EAE3F0E08081482F8981282F30E055
:1005900081E090E0022E02C0880F991F0A94E2F7D2
:1005A000809584238C93AFC08C81813009F0ABC0DF
:1005B000AAE3B0E0EAE3F0E08081482F8981282FA8
:1005C00030E081E090E0022E02C0880F991F0A946B
:1005D000E2F7842B8C9397C08A81813081F58C81DE
:1005E0008823A9F4A7E3B0E0E7E3F0E08081482F97
:1005F0008981282F30E081E090E0022E02C0880F30
:10060000991F0A94E2F7809584238C937CC08C8197
:10061000813009F078C0A7E3B0E0E7E3F0E0808143
:10062000482F8981282F30E081E090E0022E02C01F
:10063000880F991F0A94E2F7842B8C9364C08A81F7
:10064000823081F58C818823A9F4A4E3B0E0E4E34F
:10065000F0E08081482F8981282F30E081E090E010
:10066000022E02C0880F991F0A94E2F78095842316
:100670008C9349C08C81813009F045C0A4E3B0E07F
:10068000E4E3F0E08081482F8981282F30E081E089
:1006900090E0022E02C0880F991F0A94E2F7842B83
:1006A0008C9331C08A81833071F58C818823A9F4C1
:1006B000A1E3B0E0E1E3F0E08081482F8981282FB9
:1006C00030E081E090E0022E02C0880F991F0A946A
:1006D000E2F7809584238C9316C08C81813099F445
:1006E000A1E3B0E0E1E3F0E08081482F8981282F89
:1006F00030E081E090E0022E02C0880F991F0A943A
:10070000E2F7842B8C930F900F900F900F90CF9166
:10071000DF910895DF93CF9300D000D0CDB7DEB73F
:100720008B836C838B818695869586958A838B8156
:10073000877089838A81882381F58C818823A9F435
:10074000ABE3B0E0EBE3F0E08081482F8981282F14
:1007500030E081E090E0022E02C0880F991F0A94D9
:10076000E2F7809584238C93AFC08C81813009F0AF
:10077000ABC0ABE3B0E0EBE3F0E08081482F8981D0
:10078000282F30E081E090E0022E02C0880F991FF0
:100790000A94E2F7842B8C9397C08A81813081F58B
:1007A0008C818823A9F4A8E3B0E0E8E3F0E080813D
:1007B000482F8981282F30E081E090E0022E02C08E
:1007C000880F991F0A94E2F7809584238C937CC04C
:1007D0008C81813009F078C0A8E3B0E0E8E3F0E074
:1007E0008081482F8981282F30E081E090E0022E1F
:1007F00002C0880F991F0A94E2F7842B8C9364C07F
:100800008A81823081F58C818823A9F4A5E3B0E048
:10081000E5E3F0E08081482F8981282F30E081E0F6
:1008200090E0022E02C0880F991F0A94E2F780958B
:1008300084238C9349C08C81813009F045C0A5E3A5
:10084000B0E0E5E3F0E08081482F8981282F30E097
:1008500081E090E0022E02C0880F991F0A94E2F70F
:10086000842B8C9331C08A81833071F58C818823ED
:10087000A9F4A2E3B0E0E2E3F0E08081482F8981AF
:10088000282F30E081E090E0022E02C0880F991FEF
:100890000A94E2F7809584238C9316C08C81813072
:1008A00099F4A2E3B0E0E2E3F0E08081482F89818F
:1008B000282F30E081E090E0022E02C0880F991FBF
:1008C0000A94E2F7842B8C930F900F900F900F9067
:1008D000CF91DF910895DF93CF9300D0CDB7DEB7EE
:1008E00089836A838981882399F4ABE3B0E0EBE3E1
:1008F000F0E08081282F2F708A81882F90E08295E8
:100900009295907F9827807F9827822B8C9341C067
:100910008981813099F4A8E3B0E0E8E3F0E08081D8
:10092000282F2F708A81882F90E082959295907F52
:100930009827807F9827822B8C932BC089818230C7
:1009400099F4A5E3B0E0E5E3F0E08081282F2F7073
:100950008A81882F90E082959295907F9827807F5A
:100960009827822B8C9315C08981833091F4A2E360
:10097000B0E0E2E3F0E08081282F2F708A81882F99
:1009800090E082959295907F9827807F9827822B80
:100990008C930F900F90CF91DF910895DF93CF93B9
:1009A00000D0CDB7DEB789836A838981882361F45B
:1009B000ABE3B0E0EBE3F0E08081982F907F8A8199
:1009C0008F70892B8C932CC08981813061F4A8E3CE
:1009D000B0E0E8E3F0E08081982F907F8A818F700B
:1009E000892B8C931DC08981823061F4A5E3B0E02E
:1009F000E5E3F0E08081982F907F8A818F70892BCA
:100A00008C930EC08981833059F4A2E3B0E0E2E315
:100A1000F0E08081982F907F8A818F70892B8C9352
:100A20000F900F90CF91DF910895DF93CF9300D077
:100A300000D0CDB7DEB78C838C8186958695869560
:100A40008B838C8187708A838B81882391F4E9E37F
:100A5000F0E08081282F30E08A81882F90E0A90182
:100A600002C0559547958A95E2F7CA01817089833E
:100A70003EC08B81813091F4E6E3F0E08081282F45
:100A800030E08A81882F90E0A90102C055954795F2
:100A90008A95E2F7CA018170898329C08B818230EF
:100AA00091F4E3E3F0E08081282F30E08A81882F01
:100AB00090E0A90102C0559547958A95E2F7CA01D1
:100AC0008170898314C08B81833089F4E0E3F0E086
:100AD0008081282F30E08A81882F90E0A90102C010
:100AE000559547958A95E2F7CA0181708983898176
:100AF0000F900F900F900F90CF91DF910895DF939B
:100B0000CF93CDB7DEB70E948D05789480E690E054
:100B100061E070E00E940001FFCFDF93CF9300D02F
:100B200000D000D0CDB7DEB783E38B831A821C825E
:100B300088ED8D8386E88E83CE0102960E94D600D2
:100B400019820AC08981882F90E0FC01EE58FF4F7E
:100B5000108289818F5F89838981883098F32696F6
:100B60000FB6F894DEBF0FBECDBFCF91DF910895D1
:100B7000DF93CF93CDB7DEB72A970FB6F894DEBFD9
:100B80000FBECDBF82E690E061E070E00E94000100
:100B90000E9453018823E1F382E790E068E070E06F
:100BA0000E9432010E946B018823E1F3809174005E
:100BB0008C83809175008D83CE0104960E942E0651
:100BC0009A838983809176008E83809177008F83CA
:100BD000809178008887CE0106960E942E068B832E
:100BE00080917300282F30E03A87298789859A857C
:100BF00087359105A9F029853A852835310534F4E2
:100C000089859A858235910581F019C029853A85B3
:100C10002237310551F089859A858737910579F416
:100C20008B81E981FA8180830AC0E981FA81808120
:100C30008B83CE01039661E070E00E94000184E6A0
:100C400090E061E070E00E9400012A960FB6F894EF
:100C5000DEBF0FBECDBFCF91DF910895FC01882785
:100C60009927E89421912032E9F3293010F02E30B1
:100C7000C8F32B3241F02D3239F4689404C00E943D
:100C80004C06820F911D219120532A30C0F31EF48F
:100C9000909581959F4F08957AE0979F902D879F1B
:0C0CA000802D910D11240895F894FFCFD1
:060CAC003E003E000D00B9
:00000001FF
